:100000000C9472000C9493000C9493000C94930045
:100010000C9493000C9493000C9493000C94930014
:100020000C94AD0B0C9493000C9493000C949300DF
:100030000C9493000C9493000C9493000C949300F4
:100040000C9493000C9493000C9493000C949300E4
:100050000C9493000C945A0B0C9493000C94930002
:100060000C9493000C9495000C94CE000C94930087
:100070000C9493000C9493000C9493000C949300B4
:100080000C9493000C9493000C9493000C949300A4
:100090000C9493000C9493000C9493000C94930094
:1000A0000C9493000C9493000C9493000C94930084
:1000B0000C9493000C9493000C9493000C94930074
:1000C0000C9493000C9493000C9493000C94930064
:1000D0000C9493000C9493000C9493000C94930054
:1000E0000C94930011241FBECFEFD1E2DEBFCDBF31
:1000F00000E00CBF12E0A0E0B2E0E2E5F0E200E0D8
:100100000BBF02C007900D92AA32B107D9F723E0C6
:10011000AAE2B2E001C01D92AF35B207E1F70E943A
:10012000B10D0C9427100C9400001F920F920FB683
:100130000F9211240BB60F922F933F934F935F931F
:100140008F939F93EF93FF932091C0003091C6004F
:10015000287180912C0290E001968F779927409129
:100160002B0250E08417950739F080932C02FC0194
:10017000E15DFD4F308301C022E020932A02FF9110
:10018000EF919F918F915F914F913F912F910F90A0
:100190000BBE0F900FBE0F901F9018951F920F92DD
:1001A0000FB60F9211240BB60F928F939F93EF937C
:1001B000FF9390912E0280912D02981779F08091F3
:1001C0002D0290E001968F77992780932D02FC01F4
:1001D000E155FD4F80818093C60005C08091C1002C
:1001E0008F7D8093C100FF91EF919F918F910F9030
:1001F0000BBE0F900FBE0F901F901895F8941092A1
:100200002E0210922D0210922C0210922B02789442
:1002100097FF04C022E02093C0009F779093C50011
:100220008093C40088E98093C10086E08093C20077
:100230000895F89490912C0280912B02981304C099
:10024000789480E091E00895789480912B0290E07A
:1002500001968F77992780932B02FC01E15DFD4F7A
:10026000208180912A0290E0982F8827820F911D8B
:100270000895F89490912C0280912B02981304C059
:10028000789480E091E008957894E0912B02F0E07A
:100290003196EF77FF27E15DFD4F208180912A02A3
:1002A00090E0982F8827820F911D089520912E02AB
:1002B00030E02F5F3F4F2F77332740912D0250E0E2
:1002C00024173507D1F3F901E155FD4F80832093C1
:1002D0002E028091C10080628093C1000895CF9367
:1002E000DF93EC018991882319F00E945601FACF1F
:1002F000DF91CF910895CF93DF93FC018491EF01BB
:100300002196882321F00E945601FE01F7CFDF914C
:10031000CF910895F89480912C0220912B0278942B
:1003200090E080589F4F821B91098F7799270895FD
:10033000F89480912B0280932C02789408950F9367
:100340001F930097C9F0AC014150510960E070E083
:1003500080E090E08A019B010027012B022B032BF8
:1003600031F076956795579547950196F3CF982F7D
:100370008827842B952B02C080E090E01F910F917D
:100380000895CF93DF93D82FC62F809100020E944B
:10039000370D8D2F0E948C0D8C2F0E948C0DDF91BC
:1003A000CF910C94820D1F93CF93DF93182FEB0105
:1003B000809100020E94370D812F0E948C0D8D2F9D
:1003C0000E948C0D8C2F0E948C0DDF91CF911F917C
:1003D0000C94820DFF920F931F93CF93DF93F82E0F
:1003E000EA01162F072F809100020E94370D8F2DF2
:1003F0000E948C0D802F0E948C0D812F0E948C0DED
:100400008D2F0E948C0D8C2F0E948C0DDF91CF912F
:100410001F910F91FF900C94820DCF93C82F809164
:1004200000020E94370D8C2F0E948C0D80910002DB
:1004300081600E94800D0E94A70DC82F0E94820D2E
:100440008C2FCF910895CF93DF93C82F8091000216
:100450000E94370D8C2F0E948C0D809100028160CC
:100460000E94800D0E949D0DC82FD0E0DC2FCC276C
:100470000E94A70DC82B0E94820DCE01DF91CF9163
:100480000895CF92DF92EF92FF92CF93C82F809181
:1004900000020E94370D8C2F0E948C0D809100026B
:1004A00081600E94800D0E949D0DC82ED12CE12CF0
:1004B000F12CFC2CEE24DD24CC240E949D0DE82A96
:1004C0000E949D0DC82F0E94A70DC82ADC2A0E94F9
:1004D000820DC701B601CF91FF90EF90DF90CF90D2
:1004E0000895FF920F931F93CF93DF93182FF62E4B
:1004F000D72FC42F809100020E94370D812F0E94B8
:100500008C0D0F2D1D2FCC2339F0F80181918F0117
:100510000E948C0DC150F7CFDF91CF911F910F91A9
:10052000FF900C94820DFF920F931F93CF93DF9354
:10053000C82FF62E072F142F809100020E94370D2E
:100540008C2F0E948C0D8091000281600E94800D92
:10055000CF2DD02F112359F0123018F00E949D0D8D
:1005600002C00E94A70D888311502196F3CFDF911E
:10057000CF911F910F91FF900C94820DCF93C82FB4
:10058000682F66958AE80E94C101C0930002CF914E
:100590000895809300020895809100020895CF92FB
:1005A000DF92EF92FF926B017C0120E030E0A90125
:1005B0000E94CF0E87FD19C028EB3EEF4FEF53E4AA
:1005C000C701B6010E94B50F18167CF020E030E09C
:1005D00040E053E4C701B6010E94BA0F0E94D40E56
:1005E00084E40E94D30181E001C080E0FF90EF909D
:1005F000DF90CF90089584E40E942302BC0180E044
:1006000090E00E94030F20E030E040E05CE30E94B5
:10061000BA0F0895009711F480E503C0019731F4F3
:1006200080E70E940D028F5F880F08958FEF089575
:10063000CF92DF92EF92FF926B017C0161E080E844
:100640000E94C10161E08FEF0E94C10160E080E083
:100650000E94C10160913F0381E90E94C10161E0F4
:1006600080E00E94C10160E08FEF0E94C10160E064
:1006700080E80E94C101C114D104E104F10499F0A1
:1006800088EF0E942302009739F0DC01A701960150
:100690000E94400E6B017C01B701A60184E00E941C
:1006A000EA0164E001C062E080E0FF90EF90DF903B
:1006B000CF900C94C10161E080E00E94C10161E033
:1006C0008FEF0E94C10160E080E00E94C10160E004
:1006D00081E90E94C10161E080E00E94C10160E007
:1006E0008FEF0C94C101EF92FF920F931F93CF9362
:1006F000DF93CDB7DEB72C970FB6F894DEBF0FBEF1
:10070000CDBF7C010E944E0B70933E0360933D036E
:1007100083E10E940D028770D9F48091300390919B
:100720003103892BA9F30E944E0B20913D03309198
:100730003E03621B730B8091300390913103861747
:10074000970730F781E080932F038FEF9FEF36C03C
:10075000E114F10429F48EE10E9423028C0129C0E6
:100760004CE0BE016F5F7F4F84E10E94930289815C
:10077000869586958695F70180878B819C81982741
:1007800089279827978386838F819885982789273B
:1007900098279383828389859A8598278927982724
:1007A000958384830B851C851027012710271183CF
:1007B000008361E08BE00E94C101C8012C960FB656
:1007C000F894DEBF0FBECDBFDF91CF911F910F9187
:1007D000FF90EF900895CF93DF93EC0161E080E804
:1007E0000E94C10161E08FEF0E94C10160E080E0E2
:1007F0000E94C10160913F0381E90E94C10161E053
:1008000080E00E94C10160E08FEF0E94C10160E0C2
:1008100080E80E94C10161E080E00E94C1010E9465
:100820004E0B70933E0360933D0380E00E940D02E7
:1008300080FF1DC08091300390913103892BA9F373
:100840000E944E0B20913D0330913E03621B730BBF
:1008500080913003909131038617970730F781E03C
:1008600080932F038FEF9FEFDF91CF910895CE01FB
:10087000DF91CF910C94730380912F0310922F037B
:10088000089590933103809330030895809130034D
:10089000909131030895EF92FF920F931F93CF939E
:1008A0007C018B0161E080E80E94C10161E08FEF73
:1008B0000E94C10160E080E00E94C10166E08FEF0C
:1008C0000E94C10183E80E940D02682F646083E8E2
:1008D0000E94C10167E08FEF0E94C10161E081E8E1
:1008E0000E94C10161E080E80E94C1016BE684E9D9
:1008F0000E94C10160E083E80E94C1010E944E0B8A
:1009000070933E0360933D0383E80E940D02C82F5D
:10091000811116C08091300390913103892BA1F38E
:100920000E944E0B20913D0330913E03621B730BDE
:1009300080913003909131038617970728F731C0D3
:1009400061E083E80E94C10182E90E940D02982FB4
:100950009F77F7019083881F8827881FF80180837D
:1009600060E081E80E94C10166E08FEF0E94C10152
:1009700083E80E940D02682F6B7F83E80E94C1010B
:1009800061E08FEF0E94C10161E080E00E94C1013F
:1009900060E08FEF0E94C10160E080E80E94C10129
:1009A000C1E08C2FCF911F910F91FF90EF90089590
:1009B000CF93DF93EC0181E00E940D0284FB992725
:1009C00090F9988383FB992790F99A8382FB992762
:1009D00090F9998386FB992790F99B83881F882734
:1009E000881F8C83DF91CF9108952F923F924F9271
:1009F0005F926F927F928F929F92AF92BF92CF92AF
:100A0000DF92EF92FF920F931F93CF93DF9300D06B
:100A100000D0CDB7DEB71C017E836D8380E090E00F
:100A20000E940A0390E0ED81FE819183808386E439
:100A30000E940D02682E712CFFEF6F1A7F0AED8164
:100A4000FE8175826482A081B0E020E03FE24AE34B
:100A500050E00E94400E4B015C01F4EF8F0EF1E07C
:100A60009F1EA11CB11C98EEC92E93E0D92EE12C3B
:100A7000F12CC501B401A70196010E941E0ED301FD
:100A80000E944B0E69837A838B839C8320ED422ED8
:100A900027E0522E612C712CC501B401A3019201F3
:100AA0000E941E0E69817A818B819C81620F731F67
:100AB000841F951FA70196010E941E0EED81FE81E5
:100AC000228733874487558781E50E9423028C0162
:100AD000112702C0000F111F9A95E2F70F5F1F4FF9
:100AE000ED81FE8117830683A081B0E020E03FE224
:100AF0004AE350E00E94400E4B015C01F4EF8F0E80
:100B0000F1E09F1EA11CB11CC501B401A701960113
:100B10000E941E0ED8010E94400E69837A838B8347
:100B20009C83C501B401A30192010E941E0E69813C
:100B30007A818B819C81620F731F841F951FA7018F
:100B400096010E941E0EED81FE8126873787408B1D
:100B5000518B80E70E940D028F5F880F90E0ED813E
:100B6000FE819383828381E70E9423029C0199275F
:100B700002C0880F991F3A95E2F70196ED81FE8138
:100B800091878087F1012381222341F0ED81FE814D
:100B900026813781821B930B91878087ED81FE81AF
:100BA000A281B0E020E03FE24AE350E00E94400E24
:100BB0006B017C01F4EFCF0EF1E0DF1EE11CF11CB4
:100BC00088EE882E83E0982EA12CB12CC701B601A7
:100BD000A50194010E941E0EED81FE81A085B185C4
:100BE0000E94400E2B013C01C701B60120ED37E009
:100BF00040E050E00E941E0EC301B201620F731F5D
:100C0000841F951FA50194010E941E0EED81FE8197
:100C1000228B338B448B558B26960FB6F894DEBF10
:100C20000FBECDBFDF91CF911F910F91FF90EF903D
:100C3000DF90CF90BF90AF909F908F907F906F90FC
:100C40005F904F903F902F9008954F925F926F92D8
:100C50007F928F929F92AF92BF92CF92DF92EF924C
:100C6000FF921F93CF93DF93CDB7DEB76B970FB68D
:100C7000F894DEBF0FBECDBF60322EE4720781054F
:100C8000910508F4A8C06B017C01CE0147960E9433
:100C9000D804BE016F5F7F4FCE0147960E94F504D6
:100CA0008F89882349F08B859C85AD85BE858A5CBC
:100CB000944FAF4FBF4F04C088EE98E0A0E0B0E083
:100CC000298D222369F04B855C856D857E854E5488
:100CD0005D4F6F4F7F4F440F551F661F771F0BC02F
:100CE000288D222361F04B855C856D857E854C5671
:100CF0005D4F6F4F7F4F840F951FA61FB71F1A8D33
:100D0000112361F04F85588969897A894C565D4F66
:100D10006F4F7F4F840F951FA61FB71F2B8D222368
:100D200009F457C02C013D0126E2420E22E0521E7A
:100D3000611C711CC414D504E604F70408F44BC00C
:100D4000AB81B0E020E03FE24AE350E00E94400E79
:100D50004B015C0124EF820E21E0921EA11CB11C0C
:100D6000A70196012419350946095709A8EEB3E0F1
:100D70000E94400E2B013C01C501B40120ED37E07B
:100D800040E050E00E941E0E420E531E641E751E6F
:100D9000C501B40128EE33E040E050E00E941E0E91
:100DA000C301B2010E941E0EC901112321F08F81DF
:100DB0009885820F931F0E949F01BC0181E70E94CA
:100DC000D301C0924003D0924103E0924203F092DB
:100DD000430381E001C080E06B960FB6F894DEBF5C
:100DE0000FBECDBFDF91CF911F91FF90EF90DF90AD
:100DF000CF90BF90AF909F908F907F906F905F90BB
:100E00004F9008950F931F93CF93DF93CDB7DEB725
:100E10006B970FB6F894DEBF0FBECDBFCE014796DD
:100E20000E94D804BE016F5F7F4FCE0147960E949B
:100E3000F5048F89882359F08B859C85AD85BE8507
:100E4000BC01CD016C57724F8F4F9F4F04C066E3BA
:100E50007BE080E090E0298D222369F00B851C85E2
:100E60002D853E850E541D4F2F4F3F4F000F111FF4
:100E7000221F331F0BC0288D222361F00B851C8598
:100E80002D853E850C561D4F2F4F3F4F600F711F14
:100E9000821F931F2A8D222361F00F8518892989CB
:100EA0003A890C561D4F2F4F3F4F600F711F821F05
:100EB000931F2B8D222361F00B891C892D893E897C
:100EC0000A5D1D4F2F4F3F4F600F711F821F931FF1
:100ED00060934003709341038093420390934303D4
:100EE0006B960FB6F894DEBF0FBECDBFDF91CF91EA
:100EF0001F910F910895CF93682F616080E00E9449
:100F0000C1010E944E0B70933E0360933D0383E149
:100F10000E940D02C82FC770B1F4809130039091E8
:100F20003103892BA1F30E944E0B20913D03309198
:100F30003E03621B730B809130039091310386173F
:100F4000970728F709C061E08BE00E94C10160E0CB
:100F500080E00E94C101C1E08C2FCF910895CF9312
:100F6000DF93CDB7DEB728970FB6F894DEBF0FBE7C
:100F7000CDBF882341F089E80E940D02682F61608F
:100F800089E80E94C10160E088E80E94C10161E037
:100F900080E80E94C10161E08FEF0E94C10160E022
:100FA00080E00E94C10181E90E940D0280933F030D
:100FB00061E080E00E94C10160E08FEF0E94C1010A
:100FC00060E080E80E94C10180E60E940D02682F67
:100FD000626180E60E94C10160E270E084E40E94E8
:100FE000D3016FEF81E00E94C101BE01695F7F4FB5
:100FF000CE0108960E944B04811102C080E0D4C14A
:1010000046E0BE016F5F7F4F80EB0E94930261E07C
:101010008FEF0E94C10160E08FE40E94C1016CE289
:101020008EE40E94C10160E08FEF0E94C10164EB79
:1010300086EB0E94C1018F81811102C040E001C096
:101040004CE0A88580E090E061E070E0282F2695D4
:1010500026952695582F5770E1E0F0E0EC0FFD1F24
:10106000E20FF11D841710F0A9130AC09B0101C003
:10107000220F5A95EAF7209530812323208309C057
:10108000208130E002C0359527955A95E2F720FD82
:101090009F5F8F5F8033D1F646E0BE016F5F7F4F69
:1010A00080EB0E94710261E08FEF0E94C10160E05D
:1010B00080E00E94C10160E08FEF0E94C10160E00A
:1010C00089E00E94C10160E080E10E94C10160E00E
:1010D00081E10E94C10161E084E20E94C1016FEFE1
:1010E00085E20E94C10160E085E70E94C10161E0E4
:1010F0008FEF0E94C1016CE28EE40E94C10160E0AA
:1011000088E40E94C10160E280E30E94C10160E0C6
:101110008FEF0E94C10169E080E30E94C10160E09D
:1011200084E50E94C10164E081E30E94C10163E0A3
:1011300082E30E94C10163E880E40E94C10165E28C
:1011400086E40E94C10160E080E60E94C10160E087
:1011500087E20E94C10166E080E50E94C10160E073
:1011600081E50E94C10166E982E50E94C10168E053
:1011700086E50E94C10160E387E50E94C10160E04D
:1011800081E60E94C10160E082E60E94C10160E048
:1011900084E60E94C10160E085E60E94C10160EA28
:1011A00086E60E94C10161E08FEF0E94C10162E307
:1011B00082E20E94C10164E187E40E94C1016FEFF5
:1011C00089E40E94C10160E08AE40E94C10160E0FC
:1011D0008FEF0E94C1016AE08AE70E94C10160E0CE
:1011E0008BE70E94C10161E288E70E94C10161E0D2
:1011F0008FEF0E94C10164E383E20E94C10160E0BD
:1012000082E40E94C1016FEF84E40E94C10166E2A2
:1012100085E40E94C10165E086E40E94C10160E4AA
:1012200080E40E94C10166E08EE00E94C1016AE193
:1012300080E20E94C10160E483E40E94C10160E099
:101240008FEF0E94C10163E084E30E94C10164E466
:1012500085E30E94C10161E08FEF0E94C10164E05B
:1012600081E30E94C10169E08BE40E94C10165E055
:101270008CE40E94C10164E08DE40E94C10160E041
:101280008FEF0E94C10160E084E40E94C10160E22E
:1012900085E40E94C10168E087E40E94C10168E220
:1012A00088E40E94C10160E087E60E94C10164E019
:1012B00080E70E94C10161E081E70E94C1016EEFF9
:1012C00082E70E94C10160E086E70E94C10160E000
:1012D00087E70E94C10161E08FEF0E94C10161E0D8
:1012E0008DE00E94C10160E08FEF0E94C10161E0CA
:1012F00080E80E94C10168EF81E00E94C10161E0C5
:101300008FEF0E94C10161E08EE80E94C10161E09F
:1013100080E00E94C10160E08FEF0E94C10160E0A7
:1013200080E80E94C10164E08AE00E94C10184E873
:101330000E940D02682F6F7E84E80E94C10161E067
:101340008BE00E94C1010E940207609340037093EA
:101350004103809342039093430368EE81E00E942F
:10136000C1016091400370914103809142039091CB
:1013700043030E94250661E081E00E94C10180E4F0
:101380000E947B07882309F439CE62E081E00E9445
:10139000C10180E00E947B07882309F42FCE68EE0C
:1013A00081E00E94C10181E028960FB6F894DEBF6B
:1013B0000FBECDBFDF91CF9108958F929F92AF92D4
:1013C000BF92CF92DF92EF92FF921F93CF93DF9362
:1013D000CDB7DEB76B970FB6F894DEBF0FBECDBFAB
:1013E0006C01162FF62EF694FA94CE0147960E94C1
:1013F000D804BE016F5F7F4FCE0147960E94F5046F
:10140000C114D10409F072C01E3069F028F41C30F8
:1014100009F028C168E10AC0103139F0123109F031
:1014200021C160E503C060E301C060E487E50E947C
:10143000C10168E086E50E94C1016F2D80E50E9430
:10144000C101A12FB0E020E03FE24AE350E00E945A
:10145000400E6B017C0124EFC20E21E0D21EE11C84
:10146000F11CC701B60128EE33E040E050E00E94D5
:101470001E0E49015A01C701B60120ED37E040E0D8
:1014800050E00E941E0E69017A012F853889498932
:101490005A89A8EEB3E00E94400E6C0D7D1D8E1D92
:1014A0009F1DA50194010E941E0EC9010E949F016B
:1014B000BC0181E50E94D3012B853C854D855E856D
:1014C000A8EEB3E00E94400E6C0D7D1D8E1D9F1D89
:1014D000A50194010E941E0E6FEF213081E03807B4
:1014E00008F4620F86E40E94C101A1C0CA94CD280D
:1014F00009F0B8C01A3069F1C8F4183009F0B2C068
:1015000060E188E40E94C10168E087E40E94C101B3
:1015100062E082E30E94C1016CE080E30E94C101AD
:1015200061E08FEF0E94C10160E336C01C30F9F02A
:101530001E3009F097C068E488E40E94C10168E0A9
:1015400087E40E94C10163E082E30E94C10167E079
:101550001BC068E288E40E94C10168E087E40E9441
:10156000C10163E082E30E94C10169E00DC068E34C
:1015700088E40E94C10168E087E40E94C10163E041
:1015800082E30E94C10168E080E30E94C10161E042
:101590008FEF0E94C10160E280E30E94C10160E020
:1015A0008FEF0E94C1016F2D80E70E94C101A12F22
:1015B000B0E020E03FE24AE350E00E94400E6B01C1
:1015C0007C0124EFC20E21E0D21EE11CF11C2B890C
:1015D0003C894D895E89A8EEB3E00E94400E4B0124
:1015E0005C01C701B60120ED37E040E050E00E9409
:1015F0001E0E820E931EA41EB51EC701B60128EE54
:1016000033E040E050E00E941E0EC501B4010E948C
:101610001E0EC9016A8D662321F08F819885820F85
:10162000931F0E949F01BC0181E70E94D30160913A
:1016300040037091410380914203909143030E94C3
:10164000250681E00E940D02182F62E081E00E94D1
:10165000C10180E00E947B07612F81E00E94C101EF
:1016600081E001C080E06B960FB6F894DEBF0FBE3C
:10167000CDBFDF91CF911F91FF90EF90DF90CF9082
:10168000BF90AF909F908F90089582E084BD95E0C9
:1016900095BD9AE797BD80936E0008952FB7F89493
:1016A000609132037091330380913403909135033C
:1016B0002FBF08951F920F920FB60F9211248F9390
:1016C0009F93AF93BF938091320390913303A09186
:1016D0003403B09135030796A11DB11D80933203E9
:1016E00090933303A0933403B09335038091360372
:1016F0009DE6980F9D3718F49093360316C08051DD
:10170000809336038091320390913303A091340388
:10171000B09135030196A11DB11D809332039093C2
:101720003303A0933403B0933503BF91AF919F91DE
:101730008F910F900FBE0F901F9018956F98779A0A
:101740000895F894EF9AEAE6F0E08081806880835B
:1017500080818F7B8083789408951F920F920FB6BB
:101760000F9211248F939F9380913B0390913C03A0
:10177000019690933C0380933B039F918F910F9030
:101780000FBE0F901F901895E1E0F1E08081886313
:101790008083E2E0F1E08081886380830895E2E065
:1017A000F1E08081877F80830895E2E0F1E080812D
:1017B000886080830895E2E0F1E080818F7E8083FD
:1017C0000895E2E0F1E08081806180830895E2E0A5
:1017D000F1E080818F7D80830895E2E0F1E08081F7
:1017E000806280830895EAE0F1E0808188618083EF
:1017F000EBE0F1E080818861808384B1806C84B902
:1018000085B1806C85B908958093280108958093EF
:101810002A0108958093280160932A01089589EA96
:1018200080932001E1E2F1E010828FEF80932501A7
:1018300091E0909324011092290180932801109245
:101840002B0180932A0110922D0180932C018BE0B3
:101850008083089520E030E04FE753E40E94BA0F00
:101860000E94D40E609328012F9808959B01AC012B
:1018700060E070E080E89FE30E94620E20E030E0CC
:101880004FE753E40E94BA0F0E94D40E60932801E0
:101890002F9A089520E030E04FE753E40E94BA0FFA
:1018A0000E94D40E60932A012E9808959B01AC01EA
:1018B00060E070E080E89FE30E94620E20E030E08C
:1018C0004FE753E40E94BA0F0E94D40E60932A019E
:1018D0002E9A089520E030E04FE753E40E94BA0FBB
:1018E0000E94D40E6093280160932A012E982F98AD
:1018F00008959B01AC0160E070E080E89FE30E94E6
:10190000620E20E030E04FE753E40E94BA0F0E94DD
:10191000D40E6093280160932A012E9A2F9A08957D
:10192000CF92DF92EF92FF92CF936B017C0120E088
:1019300030E04FE753E40E94BA0F0E94D40EC62F46
:10194000A701960160E070E080E89FE30E94620ECC
:1019500020E030E04FE753E40E94BA0F0E94D40E1B
:1019600060932801C0932A012E982F9ACF91FF905F
:10197000EF90DF90CF900895CF92DF92EF92FF9299
:10198000CF936B017C019B01AC0160E070E080E8CB
:101990009FE30E94620E20E030E04FE753E40E9494
:1019A000BA0F0E94D40EC62F20E030E04FE753E478
:1019B000C701B6010E94BA0F0E94D40E609328019D
:1019C000C0932A012F982E9ACF91FF90EF90DF902D
:1019D000CF9008951092280110922A012E982F98E6
:1019E0000895CF92DF92EF92FF926B017C010E94EB
:1019F000EA0C20E030E04FE753E4C701B6010E9453
:101A0000BA0F0E94D40E1092280160932A012E98DA
:101A1000FF90EF90DF90CF900895CF92DF92EF92FA
:101A2000FF926B017C010E94EA0C20E030E04FE75E
:101A300053E4C701B6010E94BA0F0E94D40E60930E
:101A4000280110922A012F98FF90EF90DF90CF90FD
:101A500008950E941901911102C0811101C08FEFF8
:101A600008951092B9008AE28093B800089594EA2C
:101A70009093BC009091BC0097FFFCCF9091B9006F
:101A8000987F983021F0903111F081E00895809393
:101A9000BB0084E88093BC008091BC0087FFFCCF32
:101AA0008091B900887F883111F0803471F780E02F
:101AB000089524EA34E844E92093BC009091BC00E6
:101AC00097FFFCCF9091B900987F983011F090313A
:101AD00099F78093BB003093BC009091BC0097FFB6
:101AE000FCCF9091B900987F903211F0983539F47D
:101AF0004093BC009091BC0094FDFCCFDDCF0895D5
:101B00000C94370D84E98093BC0083ED90E301973A
:101B1000F1F700C0000008958093BB0084E8809333
:101B2000BC008091BC0087FFFCCF9091B900987FEA
:101B300081E0983209F480E0089584EC8093BC0041
:101B40008091BC0087FFFCCF8091BB00089584E8A2
:101B50008093BC008091BC0087FFFCCF8091BB00CC
:101B6000089588E090E00E94FE000E9498010E9483
:101B70000F0C0E94F30B0E94C40B0E949E0B0E944C
:101B8000A10B0E94290D8F3FE1F38E3219F40E94C0
:101B9000EA0CF7CF873739F460E070E080E09FE32C
:101BA0000E946A0CEECF813639F466E676E686E26C
:101BB0009FE30E94900CE5CF843639F460E070E03A
:101BC00080E09FE30E94BC0CDCCF8A3739F466E6E4
:101BD00076E686E29FE30E94F10CD3CF833639F498
:101BE00060E070E080E09FE30E940D0DCACF833774
:101BF00071F2823781F40E94EA0C0E94CF0B2FEF22
:101C000083ED90E3215080409040E1F700C0000058
:101C10000E94D50BB6CF873609F0B3CF0E94EA0CED
:101C20000E94E70B2FEF83ED90E32150804090401E
:101C3000E1F700C000000E94ED0BA3CFA1E21A2E35
:101C4000AA1BBB1BFD010DC0AA1FBB1FEE1FFF1F60
:101C5000A217B307E407F50720F0A21BB30BE40BB0
:101C6000F50B661F771F881F991F1A9469F76095F7
:101C70007095809590959B01AC01BD01CF010895B1
:101C80000E94530EA59F900DB49F900DA49F800DB0
:101C9000911D11240895B7FF0C94400E0E94400E30
:101CA000821B930B0895A29FB001B39FC001A39F15
:101CB000700D811D1124911DB29F700D811D112485
:101CC000911D08955058BB27AA270E947A0E0C94A4
:101CD0007B0F0E946D0F38F00E94740F20F039F4D2
:101CE0009F3F19F426F40C946A0F0EF4E095E7FB7D
:101CF0000C94640FE92F0E948C0F58F3BA176207F7
:101D000073078407950720F079F4A6F50C94AE0FBD
:101D10000EF4E0950B2EBA2FA02D0B01B901900106
:101D20000C01CA01A0011124FF27591B99F0593F4A
:101D300050F4503E68F11A16F040A22F232F342F92
:101D40004427585FF3CF469537952795A795F040E0
:101D50005395C9F77EF41F16BA0B620B730B840BF5
:101D6000BAF09150A1F0FF0FBB1F661F771F881FAD
:101D7000C2F70EC0BA0F621F731F841F48F4879505
:101D800077956795B795F7959E3F08F0B0CF9395F7
:101D9000880F08F09927EE0F9795879508950E9470
:101DA000400F08F481E008950E94940F88F09F5737
:101DB00098F0B92F9927B751B0F0E1F0660F771F6F
:101DC000881F991F1AF0BA95C9F714C0B13091F065
:101DD0000E94AE0FB1E008950C94AE0F672F782FDC
:101DE0008827B85F39F0B93FCCF38695779567952A
:101DF000B395D9F73EF490958095709561957F4F96
:101E00008F4F9F4F0895E89409C097FB3EF490953B
:101E10008095709561957F4F8F4F9F4F9923A9F0C3
:101E2000F92F96E9BB279395F69587957795679552
:101E3000B795F111F8CFFAF4BB0F11F460FF1BC096
:101E40006F5F7F4F8F4F9F4F16C0882311F096E929
:101E500011C0772321F09EE8872F762F05C06623D7
:101E600071F096E8862F70E060E02AF09A95660F90
:101E7000771F881FDAF7880F9695879597F9089549
:101E8000990F0008550FAA0BE0E8FEEF161617068B
:101E9000E807F907C0F012161306E407F50798F0F3
:101EA000621B730B840B950B39F40A2661F0232B0C
:101EB000242B252B21F408950A2609F4A140A69588
:101EC0008FEF811D811D089597F99F6780E870E06D
:101ED00060E008959FEF80EC089500240A941616A0
:101EE000170618060906089500240A941216130608
:101EF000140605060895092E0394000C11F4882396
:101F000052F0BB0F40F4BF2B11F460FF04C06F5FB1
:101F10007F4F8F4F9F4F089557FD9058440F551F87
:101F200059F05F3F71F04795880F97FB991F61F05B
:101F30009F3F79F087950895121613061406551FD2
:101F4000F2CF4695F1DF08C0161617061806991F3E
:101F5000F1CF86957105610508940895E894BB2733
:101F600066277727CB0197F908950E94400F08F460
:101F70008FEF08950E94CD0F0C947B0F0E946D0F80
:101F800038F00E94740F20F0952311F00C94640F28
:101F90000C946A0F11240C94AF0F0E948C0F70F3F5
:101FA000959FC1F3950F50E0551F629FF001729FFE
:101FB000BB27F00DB11D639FAA27F00DB11DAA1F0D
:101FC000649F6627B00DA11D661F829F2227B00D5A
:101FD000A11D621F739FB00DA11D621F839FA00DE5
:101FE000611D221F749F3327A00D611D231F849F35
:101FF000600D211D822F762F6A2F11249F5750408C
:102000009AF0F1F088234AF0EE0FFF1FBB1F661F06
:10201000771F881F91505040A9F79E3F510580F0CF
:102020000C94640F0C94AF0F5F3FE4F3983ED4F32D
:10203000869577956795B795F795E7959F5FC1F773
:10204000FE2B880F911D9695879597F90895F89422
:02205000FFCFC0
:102052005207029A99993E54782066726F6D204118
:10206200546D65676120323536303E2048656C6CB0
:0A2072006F204553503332210A005D
:00000001FF
